{
  "contractName": "CappableStaking",
  "abi": [
    {
      "inputs": [
        {
          "internalType": "address",
          "name": "_stakingToken",
          "type": "address"
        },
        {
          "internalType": "address",
          "name": "_rewardToken",
          "type": "address"
        },
        {
          "internalType": "uint256",
          "name": "_rewardAmount",
          "type": "uint256"
        },
        {
          "internalType": "uint256",
          "name": "_startTime",
          "type": "uint256"
        },
        {
          "internalType": "uint256",
          "name": "_stopTime",
          "type": "uint256"
        },
        {
          "internalType": "uint256",
          "name": "_cap",
          "type": "uint256"
        }
      ],
      "stateMutability": "nonpayable",
      "type": "constructor"
    },
    {
      "anonymous": false,
      "inputs": [
        {
          "indexed": false,
          "internalType": "uint256",
          "name": "oldCap",
          "type": "uint256"
        },
        {
          "indexed": false,
          "internalType": "uint256",
          "name": "newCap",
          "type": "uint256"
        }
      ],
      "name": "CapChange",
      "type": "event"
    },
    {
      "anonymous": false,
      "inputs": [
        {
          "indexed": true,
          "internalType": "address",
          "name": "previousOwner",
          "type": "address"
        },
        {
          "indexed": true,
          "internalType": "address",
          "name": "newOwner",
          "type": "address"
        }
      ],
      "name": "OwnershipTransferred",
      "type": "event"
    },
    {
      "anonymous": false,
      "inputs": [
        {
          "indexed": false,
          "internalType": "address",
          "name": "account",
          "type": "address"
        }
      ],
      "name": "Paused",
      "type": "event"
    },
    {
      "anonymous": false,
      "inputs": [
        {
          "indexed": true,
          "internalType": "address",
          "name": "token",
          "type": "address"
        },
        {
          "indexed": false,
          "internalType": "uint256",
          "name": "amount",
          "type": "uint256"
        }
      ],
      "name": "Recover",
      "type": "event"
    },
    {
      "anonymous": false,
      "inputs": [
        {
          "indexed": true,
          "internalType": "address",
          "name": "staker",
          "type": "address"
        },
        {
          "indexed": false,
          "internalType": "uint256",
          "name": "amount",
          "type": "uint256"
        }
      ],
      "name": "Staked",
      "type": "event"
    },
    {
      "anonymous": false,
      "inputs": [
        {
          "indexed": false,
          "internalType": "address",
          "name": "account",
          "type": "address"
        }
      ],
      "name": "Unpaused",
      "type": "event"
    },
    {
      "anonymous": false,
      "inputs": [
        {
          "indexed": true,
          "internalType": "address",
          "name": "staker",
          "type": "address"
        },
        {
          "indexed": false,
          "internalType": "uint256",
          "name": "rewardAmount",
          "type": "uint256"
        }
      ],
      "name": "Withdraw",
      "type": "event"
    },
    {
      "inputs": [],
      "name": "cap",
      "outputs": [
        {
          "internalType": "uint256",
          "name": "",
          "type": "uint256"
        }
      ],
      "stateMutability": "view",
      "type": "function"
    },
    {
      "inputs": [],
      "name": "duration",
      "outputs": [
        {
          "internalType": "uint256",
          "name": "",
          "type": "uint256"
        }
      ],
      "stateMutability": "view",
      "type": "function"
    },
    {
      "inputs": [
        {
          "internalType": "address",
          "name": "_stakeholder",
          "type": "address"
        }
      ],
      "name": "earned",
      "outputs": [
        {
          "internalType": "uint256",
          "name": "",
          "type": "uint256"
        }
      ],
      "stateMutability": "view",
      "type": "function"
    },
    {
      "inputs": [],
      "name": "exit",
      "outputs": [],
      "stateMutability": "nonpayable",
      "type": "function"
    },
    {
      "inputs": [],
      "name": "getRewardTokenBalance",
      "outputs": [
        {
          "internalType": "uint256",
          "name": "",
          "type": "uint256"
        }
      ],
      "stateMutability": "view",
      "type": "function"
    },
    {
      "inputs": [
        {
          "internalType": "address",
          "name": "_stakeholder",
          "type": "address"
        }
      ],
      "name": "getStaked",
      "outputs": [
        {
          "internalType": "uint256",
          "name": "",
          "type": "uint256"
        }
      ],
      "stateMutability": "view",
      "type": "function"
    },
    {
      "inputs": [],
      "name": "getStakingTokenBalance",
      "outputs": [
        {
          "internalType": "uint256",
          "name": "",
          "type": "uint256"
        }
      ],
      "stateMutability": "view",
      "type": "function"
    },
    {
      "inputs": [],
      "name": "getTimeElapsed",
      "outputs": [
        {
          "internalType": "uint256",
          "name": "",
          "type": "uint256"
        }
      ],
      "stateMutability": "view",
      "type": "function"
    },
    {
      "inputs": [],
      "name": "getTimeRemaining",
      "outputs": [
        {
          "internalType": "uint256",
          "name": "",
          "type": "uint256"
        }
      ],
      "stateMutability": "view",
      "type": "function"
    },
    {
      "inputs": [],
      "name": "loadReward",
      "outputs": [],
      "stateMutability": "nonpayable",
      "type": "function"
    },
    {
      "inputs": [],
      "name": "owner",
      "outputs": [
        {
          "internalType": "address",
          "name": "",
          "type": "address"
        }
      ],
      "stateMutability": "view",
      "type": "function"
    },
    {
      "inputs": [],
      "name": "pause",
      "outputs": [],
      "stateMutability": "nonpayable",
      "type": "function"
    },
    {
      "inputs": [],
      "name": "paused",
      "outputs": [
        {
          "internalType": "bool",
          "name": "",
          "type": "bool"
        }
      ],
      "stateMutability": "view",
      "type": "function"
    },
    {
      "inputs": [
        {
          "internalType": "contract IERC20",
          "name": "_token",
          "type": "address"
        }
      ],
      "name": "recoverTokens",
      "outputs": [],
      "stateMutability": "nonpayable",
      "type": "function"
    },
    {
      "inputs": [],
      "name": "renounceOwnership",
      "outputs": [],
      "stateMutability": "nonpayable",
      "type": "function"
    },
    {
      "inputs": [],
      "name": "rewardAmount",
      "outputs": [
        {
          "internalType": "uint256",
          "name": "",
          "type": "uint256"
        }
      ],
      "stateMutability": "view",
      "type": "function"
    },
    {
      "inputs": [],
      "name": "rewardLoaded",
      "outputs": [
        {
          "internalType": "bool",
          "name": "",
          "type": "bool"
        }
      ],
      "stateMutability": "view",
      "type": "function"
    },
    {
      "inputs": [],
      "name": "rewardToken",
      "outputs": [
        {
          "internalType": "address",
          "name": "",
          "type": "address"
        }
      ],
      "stateMutability": "view",
      "type": "function"
    },
    {
      "inputs": [
        {
          "internalType": "address",
          "name": "",
          "type": "address"
        }
      ],
      "name": "stakeholders",
      "outputs": [
        {
          "internalType": "uint256",
          "name": "staked",
          "type": "uint256"
        },
        {
          "internalType": "uint256",
          "name": "stakedRatio",
          "type": "uint256"
        },
        {
          "internalType": "uint256",
          "name": "timestamp",
          "type": "uint256"
        }
      ],
      "stateMutability": "view",
      "type": "function"
    },
    {
      "inputs": [],
      "name": "stakingToken",
      "outputs": [
        {
          "internalType": "address",
          "name": "",
          "type": "address"
        }
      ],
      "stateMutability": "view",
      "type": "function"
    },
    {
      "inputs": [],
      "name": "startTime",
      "outputs": [
        {
          "internalType": "uint256",
          "name": "",
          "type": "uint256"
        }
      ],
      "stateMutability": "view",
      "type": "function"
    },
    {
      "inputs": [],
      "name": "stopTime",
      "outputs": [
        {
          "internalType": "uint256",
          "name": "",
          "type": "uint256"
        }
      ],
      "stateMutability": "view",
      "type": "function"
    },
    {
      "inputs": [],
      "name": "totalStaked",
      "outputs": [
        {
          "internalType": "uint256",
          "name": "",
          "type": "uint256"
        }
      ],
      "stateMutability": "view",
      "type": "function"
    },
    {
      "inputs": [],
      "name": "totalStakedRatio",
      "outputs": [
        {
          "internalType": "uint256",
          "name": "",
          "type": "uint256"
        }
      ],
      "stateMutability": "view",
      "type": "function"
    },
    {
      "inputs": [
        {
          "internalType": "address",
          "name": "newOwner",
          "type": "address"
        }
      ],
      "name": "transferOwnership",
      "outputs": [],
      "stateMutability": "nonpayable",
      "type": "function"
    },
    {
      "inputs": [],
      "name": "unpause",
      "outputs": [],
      "stateMutability": "nonpayable",
      "type": "function"
    },
    {
      "inputs": [
        {
          "internalType": "address",
          "name": "",
          "type": "address"
        }
      ],
      "name": "withdrawn",
      "outputs": [
        {
          "internalType": "bool",
          "name": "",
          "type": "bool"
        }
      ],
      "stateMutability": "view",
      "type": "function"
    },
    {
      "inputs": [
        {
          "internalType": "uint256",
          "name": "_amount",
          "type": "uint256"
        }
      ],
      "name": "stake",
      "outputs": [],
      "stateMutability": "nonpayable",
      "type": "function"
    },
    {
      "inputs": [
        {
          "internalType": "uint256",
          "name": "_newCap",
          "type": "uint256"
        }
      ],
      "name": "setCap",
      "outputs": [],
      "stateMutability": "nonpayable",
      "type": "function"
    }
  ],
  "bytecode": "0x60806040523480156200001157600080fd5b5060405162002e5038038062002e508339818101604052810190620000379190620003ed565b85858585856200006e62000059620002d0640100000000026401000000009004565b620002d8640100000000026401000000009004565b60008060146101000a81548160ff021916908315150217905550620000bd8573ffffffffffffffffffffffffffffffffffffffff166200039c6401000000000262001320176401000000009004565b620000ff576040517f08c379a0000000000000000000000000000000000000000000000000000000008152600401620000f69062000541565b60405180910390fd5b620001348473ffffffffffffffffffffffffffffffffffffffff166200039c6401000000000262001320176401000000009004565b62000176576040517f08c379a00000000000000000000000000000000000000000000000000000000081526004016200016d906200051f565b60405180910390fd5b60008311620001bc576040517f08c379a0000000000000000000000000000000000000000000000000000000008152600401620001b39062000585565b60405180910390fd5b4282118015620001cb57508082105b6200020d576040517f08c379a0000000000000000000000000000000000000000000000000000000008152600401620002049062000563565b60405180910390fd5b84600160006101000a81548173ffffffffffffffffffffffffffffffffffffffff021916908373ffffffffffffffffffffffffffffffffffffffff16021790555083600260006101000a81548173ffffffffffffffffffffffffffffffffffffffff021916908373ffffffffffffffffffffffffffffffffffffffff1602179055508260038190555081600481905550806005819055508181620002b29190620005b8565b600681905550505050505080600c81905550505050505050620007aa565b600033905090565b60008060009054906101000a900473ffffffffffffffffffffffffffffffffffffffff169050816000806101000a81548173ffffffffffffffffffffffffffffffffffffffff021916908373ffffffffffffffffffffffffffffffffffffffff1602179055508173ffffffffffffffffffffffffffffffffffffffff168173ffffffffffffffffffffffffffffffffffffffff167f8be0079c531659141344cd1fd0a4f28419497f9722a3daafe3b4186f6b6457e060405160405180910390a35050565b6000808273ffffffffffffffffffffffffffffffffffffffff163b119050919050565b600081519050620003d08162000776565b92915050565b600081519050620003e78162000790565b92915050565b60008060008060008060c087890312156200040757600080fd5b60006200041789828a01620003bf565b96505060206200042a89828a01620003bf565b95505060406200043d89828a01620003d6565b94505060606200045089828a01620003d6565b93505060806200046389828a01620003d6565b92505060a06200047689828a01620003d6565b9150509295509295509295565b600062000492602b83620005a7565b91506200049f8262000660565b604082019050919050565b6000620004b9602c83620005a7565b9150620004c682620006af565b604082019050919050565b6000620004e0601d83620005a7565b9150620004ed82620006fe565b602082019050919050565b600062000507602f83620005a7565b9150620005148262000727565b604082019050919050565b600060208201905081810360008301526200053a8162000483565b9050919050565b600060208201905081810360008301526200055c81620004aa565b9050919050565b600060208201905081810360008301526200057e81620004d1565b9050919050565b60006020820190508181036000830152620005a081620004f8565b9050919050565b600082825260208201905092915050565b6000620005c58262000627565b9150620005d28362000627565b925082821015620005e857620005e762000631565b5b828203905092915050565b6000620006008262000607565b9050919050565b600073ffffffffffffffffffffffffffffffffffffffff82169050919050565b6000819050919050565b7f4e487b7100000000000000000000000000000000000000000000000000000000600052601160045260246000fd5b7f5374616b696e673a20726577617264546f6b656e206e6f74206120636f6e747260008201527f6163742061646472657373000000000000000000000000000000000000000000602082015250565b7f5374616b696e673a207374616b696e67546f6b656e206e6f74206120636f6e7460008201527f7261637420616464726573730000000000000000000000000000000000000000602082015250565b7f5374616b696e673a20696e636f72726563742074696d657374616d7073000000600082015250565b7f5374616b696e673a20726577617264416d6f756e74206d75737420626520677260008201527f6561746572207468616e207a65726f0000000000000000000000000000000000602082015250565b6200078181620005f3565b81146200078d57600080fd5b50565b6200079b8162000627565b8114620007a757600080fd5b50565b61269680620007ba6000396000f3fe608060405234801561001057600080fd5b50600436106101eb576000357c010000000000000000000000000000000000000000000000000000000090048063715018a611610121578063a694fc3a116100bf578063e9fad8ee1161008e578063e9fad8ee146104d2578063f2fde38b146104dc578063f7b2a7be146104f8578063f7c618c114610516576101eb565b8063a694fc3a14610448578063b428fcd014610464578063c07cfca914610482578063dac6270d146104b4576101eb565b8063817b1cd2116100fb578063817b1cd2146103e45780638456cb59146104025780638da5cb5b1461040c57806393ce53431461042a576101eb565b8063715018a61461039e57806372f702f3146103a857806378e97925146103c6576101eb565b8063355274ea1161018e57806347786d371161016857806347786d37146103165780634faa2d54146103325780635c975abb146103505780636ef610921461036e576101eb565b8063355274ea146102be578063399080ec146102dc5780633f4ba83a1461030c576101eb565b80630fb5a6b4116101ca5780630fb5a6b41461024857806316114acd1461026657806320a1318c146102825780632a6da428146102a0576101eb565b80628cc262146101f057806303ff5e73146102205780630ecd9bf81461023e575b600080fd5b61020a60048036038101906102059190611be1565b610534565b60405161021791906120d8565b60405180910390f35b610228610657565b60405161023591906120d8565b60405180910390f35b61024661065d565b005b61025061074a565b60405161025d91906120d8565b60405180910390f35b610280600480360381019061027b9190611c33565b610750565b005b61028a610978565b60405161029791906120d8565b60405180910390f35b6102a8610a46565b6040516102b59190611f1d565b60405180910390f35b6102c6610a59565b6040516102d391906120d8565b60405180910390f35b6102f660048036038101906102f19190611be1565b610a5f565b60405161030391906120d8565b60405180910390f35b610314610aab565b005b610330600480360381019061032b9190611c5c565b610b31565b005b61033a610c3d565b60405161034791906120d8565b60405180910390f35b610358610c7c565b6040516103659190611f1d565b60405180910390f35b61038860048036038101906103839190611be1565b610c92565b6040516103959190611f1d565b60405180910390f35b6103a6610cb2565b005b6103b0610d3a565b6040516103bd9190611ea2565b60405180910390f35b6103ce610d60565b6040516103db91906120d8565b60405180910390f35b6103ec610d66565b6040516103f991906120d8565b60405180910390f35b61040a610d6c565b005b610414610df2565b6040516104219190611ea2565b60405180910390f35b610432610e1b565b60405161043f91906120d8565b60405180910390f35b610462600480360381019061045d9190611c5c565b610ee9565b005b61046c610f49565b60405161047991906120d8565b60405180910390f35b61049c60048036038101906104979190611be1565b610f4f565b6040516104ab9392919061211c565b60405180910390f35b6104bc610f79565b6040516104c991906120d8565b60405180910390f35b6104da610fb8565b005b6104f660048036038101906104f19190611be1565b6111fc565b005b6105006112f4565b60405161050d91906120d8565b60405180910390f35b61051e6112fa565b60405161052b9190611ea2565b60405180910390f35b600080600a60008473ffffffffffffffffffffffffffffffffffffffff1673ffffffffffffffffffffffffffffffffffffffff16815260200190815260200160002060405180606001604052908160008201548152602001600182015481526020016002820154815250509050600b60008473ffffffffffffffffffffffffffffffffffffffff1673ffffffffffffffffffffffffffffffffffffffff16815260200190815260200160002060009054906101000a900460ff16806105fd575060008160000151145b1561060c576000915050610652565b600061061b8260200151611343565b9050816040015160055461062f9190612245565b61063885611367565b8261064391906121eb565b61064d91906121ba565b925050505b919050565b60055481565b600260009054906101000a900473ffffffffffffffffffffffffffffffffffffffff1673ffffffffffffffffffffffffffffffffffffffff166323b872dd33306003546040518463ffffffff167c01000000000000000000000000000000000000000000000000000000000281526004016106da93929190611ebd565b602060405180830381600087803b1580156106f457600080fd5b505af1158015610708573d6000803e3d6000fd5b505050506040513d601f19601f8201168201806040525081019061072c9190611c0a565b506001600960006101000a81548160ff021916908315150217905550565b60065481565b61075861140e565b73ffffffffffffffffffffffffffffffffffffffff16610776610df2565b73ffffffffffffffffffffffffffffffffffffffff16146107cc576040517f08c379a00000000000000000000000000000000000000000000000000000000081526004016107c390612038565b60405180910390fd5b60008173ffffffffffffffffffffffffffffffffffffffff166370a08231306040518263ffffffff167c01000000000000000000000000000000000000000000000000000000000281526004016108239190611ea2565b60206040518083038186803b15801561083b57600080fd5b505afa15801561084f573d6000803e3d6000fd5b505050506040513d601f19601f820116820180604052508101906108739190611c85565b90508173ffffffffffffffffffffffffffffffffffffffff1663a9059cbb610899610df2565b836040518363ffffffff167c01000000000000000000000000000000000000000000000000000000000281526004016108d3929190611ef4565b602060405180830381600087803b1580156108ed57600080fd5b505af1158015610901573d6000803e3d6000fd5b505050506040513d601f19601f820116820180604052508101906109259190611c0a565b508173ffffffffffffffffffffffffffffffffffffffff167f817c5912299b2d8eea4d9429e557c7b42c96a31499b4229932d1f070f068e37a8260405161096c91906120d8565b60405180910390a25050565b6000600160009054906101000a900473ffffffffffffffffffffffffffffffffffffffff1673ffffffffffffffffffffffffffffffffffffffff166370a08231306040518263ffffffff167c01000000000000000000000000000000000000000000000000000000000281526004016109f19190611ea2565b60206040518083038186803b158015610a0957600080fd5b505afa158015610a1d573d6000803e3d6000fd5b505050506040513d601f19601f82011682018060405250810190610a419190611c85565b905090565b600960009054906101000a900460ff1681565b600c5481565b6000600a60008373ffffffffffffffffffffffffffffffffffffffff1673ffffffffffffffffffffffffffffffffffffffff168152602001908152602001600020600001549050919050565b610ab361140e565b73ffffffffffffffffffffffffffffffffffffffff16610ad1610df2565b73ffffffffffffffffffffffffffffffffffffffff1614610b27576040517f08c379a0000000000000000000000000000000000000000000000000000000008152600401610b1e90612038565b60405180910390fd5b610b2f611416565b565b610b3961140e565b73ffffffffffffffffffffffffffffffffffffffff16610b57610df2565b73ffffffffffffffffffffffffffffffffffffffff1614610bad576040517f08c379a0000000000000000000000000000000000000000000000000000000008152600401610ba490612038565b60405180910390fd5b600754811015610bf2576040517f08c379a0000000000000000000000000000000000000000000000000000000008152600401610be990611f58565b60405180910390fd5b6000600c54905081600c819055507fe33ab2ea612635770f109d34ef704ae0b0ff4185179b98530e28727d96f194678183604051610c319291906120f3565b60405180910390a15050565b600080600454421015610c51576000610c73565b600554421115610c6357600654610c72565b60045442610c719190612245565b5b5b90508091505090565b60008060149054906101000a900460ff16905090565b600b6020528060005260406000206000915054906101000a900460ff1681565b610cba61140e565b73ffffffffffffffffffffffffffffffffffffffff16610cd8610df2565b73ffffffffffffffffffffffffffffffffffffffff1614610d2e576040517f08c379a0000000000000000000000000000000000000000000000000000000008152600401610d2590612038565b60405180910390fd5b610d3860006114b7565b565b600160009054906101000a900473ffffffffffffffffffffffffffffffffffffffff1681565b60045481565b60075481565b610d7461140e565b73ffffffffffffffffffffffffffffffffffffffff16610d92610df2565b73ffffffffffffffffffffffffffffffffffffffff1614610de8576040517f08c379a0000000000000000000000000000000000000000000000000000000008152600401610ddf90612038565b60405180910390fd5b610df061157b565b565b60008060009054906101000a900473ffffffffffffffffffffffffffffffffffffffff16905090565b6000600260009054906101000a900473ffffffffffffffffffffffffffffffffffffffff1673ffffffffffffffffffffffffffffffffffffffff166370a08231306040518263ffffffff167c0100000000000000000000000000000000000000000000000000000000028152600401610e949190611ea2565b60206040518083038186803b158015610eac57600080fd5b505afa158015610ec0573d6000803e3d6000fd5b505050506040513d601f19601f82011682018060405250810190610ee49190611c85565b905090565b80600c5481600754610efb9190612164565b1115610f3c576040517f08c379a0000000000000000000000000000000000000000000000000000000008152600401610f3390611fd8565b60405180910390fd5b610f458261161e565b5050565b60085481565b600a6020528060005260406000206000915090508060000154908060010154908060020154905083565b600080600554421115610f8d576000610faf565b600454421015610f9f57600654610fae565b42600554610fad9190612245565b5b5b90508091505090565b610fc0610c7c565b15611000576040517f08c379a0000000000000000000000000000000000000000000000000000000008152600401610ff790611ff8565b60405180910390fd5b600554421015611045576040517f08c379a000000000000000000000000000000000000000000000000000000000815260040161103c90612078565b60405180910390fd5b6000600a60003373ffffffffffffffffffffffffffffffffffffffff1673ffffffffffffffffffffffffffffffffffffffff1681526020019081526020016000206040518060600160405290816000820154815260200160018201548152602001600282015481525050905060008160000151116110f8576040517f08c379a00000000000000000000000000000000000000000000000000000000081526004016110ef90612098565b60405180910390fd5b600b60003373ffffffffffffffffffffffffffffffffffffffff1673ffffffffffffffffffffffffffffffffffffffff16815260200190815260200160002060009054906101000a900460ff1615611185576040517f08c379a000000000000000000000000000000000000000000000000000000000815260040161117c906120b8565b60405180910390fd5b6001600b60003373ffffffffffffffffffffffffffffffffffffffff1673ffffffffffffffffffffffffffffffffffffffff16815260200190815260200160002060006101000a81548160ff0219169083151502179055506111eb33826000015161197c565b6111f9338260200151611a4c565b50565b61120461140e565b73ffffffffffffffffffffffffffffffffffffffff16611222610df2565b73ffffffffffffffffffffffffffffffffffffffff1614611278576040517f08c379a000000000000000000000000000000000000000000000000000000000815260040161126f90612038565b60405180910390fd5b600073ffffffffffffffffffffffffffffffffffffffff168173ffffffffffffffffffffffffffffffffffffffff1614156112e8576040517f08c379a00000000000000000000000000000000000000000000000000000000081526004016112df90611f78565b60405180910390fd5b6112f1816114b7565b50565b60035481565b600260009054906101000a900473ffffffffffffffffffffffffffffffffffffffff1681565b6000808273ffffffffffffffffffffffffffffffffffffffff163b119050919050565b60006008548260035461135691906121eb565b61136091906121ba565b9050919050565b600080600a60008473ffffffffffffffffffffffffffffffffffffffff1673ffffffffffffffffffffffffffffffffffffffff168152602001908152602001600020604051806060016040529081600082015481526020016001820154815260200160028201548152505090506005544211156113f55780604001516005546113f09190612245565b611406565b8060400151426114059190612245565b5b915050919050565b600033905090565b61141e610c7c565b61145d576040517f08c379a000000000000000000000000000000000000000000000000000000000815260040161145490611f38565b60405180910390fd5b60008060146101000a81548160ff0219169083151502179055507f5db9ee0a495bf2e6ff9c91a7834c1ba4fdd244a5e8aa4e537bd38aeae4b073aa6114a061140e565b6040516114ad9190611ea2565b60405180910390a1565b60008060009054906101000a900473ffffffffffffffffffffffffffffffffffffffff169050816000806101000a81548173ffffffffffffffffffffffffffffffffffffffff021916908373ffffffffffffffffffffffffffffffffffffffff1602179055508173ffffffffffffffffffffffffffffffffffffffff168173ffffffffffffffffffffffffffffffffffffffff167f8be0079c531659141344cd1fd0a4f28419497f9722a3daafe3b4186f6b6457e060405160405180910390a35050565b611583610c7c565b156115c3576040517f08c379a00000000000000000000000000000000000000000000000000000000081526004016115ba90611ff8565b60405180910390fd5b6001600060146101000a81548160ff0219169083151502179055507f62e78cea01bee320cd4e420270b5ea74000d11b0c9f74754ebdbfc544b05a25861160761140e565b6040516116149190611ea2565b60405180910390a1565b611626610c7c565b15611666576040517f08c379a000000000000000000000000000000000000000000000000000000000815260040161165d90611ff8565b60405180910390fd5b600960009054906101000a900460ff166116b5576040517f08c379a00000000000000000000000000000000000000000000000000000000081526004016116ac90611fb8565b60405180910390fd5b6004544210156116fa576040517f08c379a00000000000000000000000000000000000000000000000000000000081526004016116f190612018565b60405180910390fd5b60055442111561173f576040517f08c379a000000000000000000000000000000000000000000000000000000000815260040161173690612058565b60405180910390fd5b60008111611782576040517f08c379a000000000000000000000000000000000000000000000000000000000815260040161177990611f98565b60405180910390fd5b6000600a60003373ffffffffffffffffffffffffffffffffffffffff1673ffffffffffffffffffffffffffffffffffffffff1681526020019081526020016000209050818160000160008282546117d99190612164565b9250508190555060006117ea610f79565b836117f591906121eb565b90508082600101600082825461180b9190612164565b92505081905550600082600201541415611829574282600201819055505b826007600082825461183b9190612164565b9250508190555080600860008282546118549190612164565b92505081905550600160009054906101000a900473ffffffffffffffffffffffffffffffffffffffff1673ffffffffffffffffffffffffffffffffffffffff166323b872dd3330866040518463ffffffff167c01000000000000000000000000000000000000000000000000000000000281526004016118d693929190611ebd565b602060405180830381600087803b1580156118f057600080fd5b505af1158015611904573d6000803e3d6000fd5b505050506040513d601f19601f820116820180604052508101906119289190611c0a565b503373ffffffffffffffffffffffffffffffffffffffff167f9e71bc8eea02a63969f509818f2dafb9254532904319f9dbda79b67bd34a5f3d8460405161196f91906120d8565b60405180910390a2505050565b600160009054906101000a900473ffffffffffffffffffffffffffffffffffffffff1673ffffffffffffffffffffffffffffffffffffffff1663a9059cbb83836040518363ffffffff167c01000000000000000000000000000000000000000000000000000000000281526004016119f5929190611ef4565b602060405180830381600087803b158015611a0f57600080fd5b505af1158015611a23573d6000803e3d6000fd5b505050506040513d601f19601f82011682018060405250810190611a479190611c0a565b505050565b6000611a5782611343565b9050600260009054906101000a900473ffffffffffffffffffffffffffffffffffffffff1673ffffffffffffffffffffffffffffffffffffffff1663a9059cbb84836040518363ffffffff167c0100000000000000000000000000000000000000000000000000000000028152600401611ad2929190611ef4565b602060405180830381600087803b158015611aec57600080fd5b505af1158015611b00573d6000803e3d6000fd5b505050506040513d601f19601f82011682018060405250810190611b249190611c0a565b503373ffffffffffffffffffffffffffffffffffffffff167f884edad9ce6fa2440d8a54cc123490eb96d2768479d49ff9c7366125a942436482604051611b6b91906120d8565b60405180910390a2505050565b600081359050611b8781612604565b92915050565b600081519050611b9c8161261b565b92915050565b600081359050611bb181612632565b92915050565b600081359050611bc681612649565b92915050565b600081519050611bdb81612649565b92915050565b600060208284031215611bf357600080fd5b6000611c0184828501611b78565b91505092915050565b600060208284031215611c1c57600080fd5b6000611c2a84828501611b8d565b91505092915050565b600060208284031215611c4557600080fd5b6000611c5384828501611ba2565b91505092915050565b600060208284031215611c6e57600080fd5b6000611c7c84828501611bb7565b91505092915050565b600060208284031215611c9757600080fd5b6000611ca584828501611bcc565b91505092915050565b611cb781612279565b82525050565b611cc68161228b565b82525050565b6000611cd9601483612153565b9150611ce482612331565b602082019050919050565b6000611cfc603083612153565b9150611d078261235a565b604082019050919050565b6000611d1f602683612153565b9150611d2a826123a9565b604082019050919050565b6000611d42601a83612153565b9150611d4d826123f8565b602082019050919050565b6000611d65603183612153565b9150611d7082612421565b604082019050919050565b6000611d88601783612153565b9150611d9382612470565b602082019050919050565b6000611dab601083612153565b9150611db682612499565b602082019050919050565b6000611dce601c83612153565b9150611dd9826124c2565b602082019050919050565b6000611df1602083612153565b9150611dfc826124eb565b602082019050919050565b6000611e14601c83612153565b9150611e1f82612514565b602082019050919050565b6000611e37602083612153565b9150611e428261253d565b602082019050919050565b6000611e5a602d83612153565b9150611e6582612566565b604082019050919050565b6000611e7d602383612153565b9150611e88826125b5565b604082019050919050565b611e9c816122c9565b82525050565b6000602082019050611eb76000830184611cae565b92915050565b6000606082019050611ed26000830186611cae565b611edf6020830185611cae565b611eec6040830184611e93565b949350505050565b6000604082019050611f096000830185611cae565b611f166020830184611e93565b9392505050565b6000602082019050611f326000830184611cbd565b92915050565b60006020820190508181036000830152611f5181611ccc565b9050919050565b60006020820190508181036000830152611f7181611cef565b9050919050565b60006020820190508181036000830152611f9181611d12565b9050919050565b60006020820190508181036000830152611fb181611d35565b9050919050565b60006020820190508181036000830152611fd181611d58565b9050919050565b60006020820190508181036000830152611ff181611d7b565b9050919050565b6000602082019050818103600083015261201181611d9e565b9050919050565b6000602082019050818103600083015261203181611dc1565b9050919050565b6000602082019050818103600083015261205181611de4565b9050919050565b6000602082019050818103600083015261207181611e07565b9050919050565b6000602082019050818103600083015261209181611e2a565b9050919050565b600060208201905081810360008301526120b181611e4d565b9050919050565b600060208201905081810360008301526120d181611e70565b9050919050565b60006020820190506120ed6000830184611e93565b92915050565b60006040820190506121086000830185611e93565b6121156020830184611e93565b9392505050565b60006060820190506121316000830186611e93565b61213e6020830185611e93565b61214b6040830184611e93565b949350505050565b600082825260208201905092915050565b600061216f826122c9565b915061217a836122c9565b9250827fffffffffffffffffffffffffffffffffffffffffffffffffffffffffffffffff038211156121af576121ae6122d3565b5b828201905092915050565b60006121c5826122c9565b91506121d0836122c9565b9250826121e0576121df612302565b5b828204905092915050565b60006121f6826122c9565b9150612201836122c9565b9250817fffffffffffffffffffffffffffffffffffffffffffffffffffffffffffffffff048311821515161561223a576122396122d3565b5b828202905092915050565b6000612250826122c9565b915061225b836122c9565b92508282101561226e5761226d6122d3565b5b828203905092915050565b6000612284826122a9565b9050919050565b60008115159050919050565b60006122a282612279565b9050919050565b600073ffffffffffffffffffffffffffffffffffffffff82169050919050565b6000819050919050565b7f4e487b7100000000000000000000000000000000000000000000000000000000600052601160045260246000fd5b7f4e487b7100000000000000000000000000000000000000000000000000000000600052601260045260246000fd5b7f5061757361626c653a206e6f7420706175736564000000000000000000000000600082015250565b7f5374616b696e673a206e657720636170206c657373207468616e20616c72656160008201527f6479207374616b656420616d6f756e7400000000000000000000000000000000602082015250565b7f4f776e61626c653a206e6577206f776e657220697320746865207a65726f206160008201527f6464726573730000000000000000000000000000000000000000000000000000602082015250565b7f5374616b696e673a20616d6f756e742063616e27742062652030000000000000600082015250565b7f5374616b696e673a2052657761726473206e6f74206c6f6164656420696e746f60008201527f2074686520636f6e747261637420796574000000000000000000000000000000602082015250565b7f5374616b696e673a206f76657220636170206c696d6974000000000000000000600082015250565b7f5061757361626c653a2070617573656400000000000000000000000000000000600082015250565b7f5374616b696e673a207374616b696e67206e6f74207374617274656400000000600082015250565b7f4f776e61626c653a2063616c6c6572206973206e6f7420746865206f776e6572600082015250565b7f5374616b696e673a207374616b696e6720706572696f64206f76657200000000600082015250565b7f5374616b696e673a207374616b696e6720706572696f64206e6f74206f766572600082015250565b7f5374616b696e673a20796f752068617665206e6f74207061727469636970617460008201527f656420696e207374616b696e6700000000000000000000000000000000000000602082015250565b7f5374616b696e673a20796f75206861766520616c72656164792077697468647260008201527f61776e0000000000000000000000000000000000000000000000000000000000602082015250565b61260d81612279565b811461261857600080fd5b50565b6126248161228b565b811461262f57600080fd5b50565b61263b81612297565b811461264657600080fd5b50565b612652816122c9565b811461265d57600080fd5b5056fea2646970667358221220f2ae0fbd788b44c9521ba25b970c742e15e9ab2a9bef50c619dffe5f70f1cbd664736f6c63430008040033",
  "immutableReferences": {},
  "source": "// SPDX-License-Identifier: MIT\npragma solidity 0.8.4;\n\nimport { Staking } from \"../Staking.sol\";\n\ncontract CappableStaking is Staking {\n    uint256 public cap;\n\n    event CapChange(uint256 oldCap, uint256 newCap);\n\n    constructor(\n        address _stakingToken,\n        address _rewardToken,\n        uint256 _rewardAmount,\n        uint256 _startTime,\n        uint256 _stopTime,\n        uint256 _cap\n    ) Staking(_stakingToken, _rewardToken, _rewardAmount, _startTime, _stopTime) {\n        cap = _cap;\n    }\n\n    modifier capped(uint256 _amount) {\n        require(totalStaked + _amount <= cap, \"Staking: over cap limit\");\n        _;\n    }\n\n    function stake(uint256 _amount) public override capped(_amount) {\n        super.stake(_amount);\n    }\n\n    function setCap(uint256 _newCap) public onlyOwner {\n        require(_newCap >= totalStaked, \"Staking: new cap less than already staked amount\");\n        uint256 oldCap = cap;\n        cap = _newCap;\n        emit CapChange(oldCap, _newCap);\n    }\n}\n",
  "sourcePath": "/Users/abdulmajid/ps-staking-contract/contracts/extensions/CappableStaking.sol",
  "compiler": {
    "name": "solc",
    "version": "0.8.4+commit.c7e474f2.Emscripten.clang"
  },
  "schemaVersion": "3.4.6",
  "updatedAt": "2022-03-23T14:22:21.264Z",
  "devdoc": {
    "kind": "dev",
    "methods": {
      "owner()": {
        "details": "Returns the address of the current owner."
      },
      "paused()": {
        "details": "Returns true if the contract is paused, and false otherwise."
      },
      "renounceOwnership()": {
        "details": "Leaves the contract without owner. It will not be possible to call `onlyOwner` functions anymore. Can only be called by the current owner. NOTE: Renouncing ownership will leave the contract without an owner, thereby removing any functionality that is only available to the owner."
      },
      "transferOwnership(address)": {
        "details": "Transfers ownership of the contract to a new account (`newOwner`). Can only be called by the current owner."
      }
    },
    "version": 1
  },
  "userdoc": {
    "kind": "user",
    "methods": {},
    "version": 1
  }
}